{
  "contractName": "Meteo_Station",
  "abi": [
    {
      "inputs": [
        {
          "internalType": "uint256",
          "name": "",
          "type": "uint256"
        }
      ],
      "name": "weather_station_data1",
      "outputs": [
        {
          "internalType": "string",
          "name": "Timestamp",
          "type": "string"
        },
        {
          "internalType": "string",
          "name": "time",
          "type": "string"
        },
        {
          "internalType": "string",
          "name": "TempIn",
          "type": "string"
        },
        {
          "internalType": "string",
          "name": "TempOut",
          "type": "string"
        },
        {
          "internalType": "string",
          "name": "HumIn",
          "type": "string"
        },
        {
          "internalType": "string",
          "name": "HumOut",
          "type": "string"
        },
        {
          "internalType": "string",
          "name": "BarTrend",
          "type": "string"
        },
        {
          "internalType": "string",
          "name": "WindSpeed",
          "type": "string"
        },
        {
          "internalType": "string",
          "name": "WindDir",
          "type": "string"
        },
        {
          "internalType": "string",
          "name": "RainDay",
          "type": "string"
        }
      ],
      "stateMutability": "view",
      "type": "function",
      "constant": true
    },
    {
      "inputs": [
        {
          "internalType": "uint256",
          "name": "",
          "type": "uint256"
        }
      ],
      "name": "weather_station_data2",
      "outputs": [
        {
          "internalType": "string",
          "name": "SolarRad",
          "type": "string"
        },
        {
          "internalType": "string",
          "name": "UV",
          "type": "string"
        },
        {
          "internalType": "string",
          "name": "RainRate",
          "type": "string"
        },
        {
          "internalType": "string",
          "name": "SunRise",
          "type": "string"
        },
        {
          "internalType": "string",
          "name": "SunSet",
          "type": "string"
        },
        {
          "internalType": "string",
          "name": "Barometer",
          "type": "string"
        },
        {
          "internalType": "string",
          "name": "EtDay",
          "type": "string"
        }
      ],
      "stateMutability": "view",
      "type": "function",
      "constant": true
    },
    {
      "inputs": [
        {
          "internalType": "string",
          "name": "_Timestamp",
          "type": "string"
        },
        {
          "internalType": "string",
          "name": "_time",
          "type": "string"
        },
        {
          "internalType": "string",
          "name": "_TempIn",
          "type": "string"
        },
        {
          "internalType": "string",
          "name": "_TempOut",
          "type": "string"
        },
        {
          "internalType": "string",
          "name": "_HumIn",
          "type": "string"
        },
        {
          "internalType": "string",
          "name": "_HumOut",
          "type": "string"
        },
        {
          "internalType": "string",
          "name": "_BarTrend",
          "type": "string"
        },
        {
          "internalType": "string",
          "name": "_WindSpeed",
          "type": "string"
        },
        {
          "internalType": "string",
          "name": "_WindDir",
          "type": "string"
        },
        {
          "internalType": "string",
          "name": "_RainDay",
          "type": "string"
        }
      ],
      "name": "add_Data1",
      "outputs": [],
      "stateMutability": "nonpayable",
      "type": "function"
    },
    {
      "inputs": [
        {
          "internalType": "string",
          "name": "_SolarRad",
          "type": "string"
        },
        {
          "internalType": "string",
          "name": "_UV",
          "type": "string"
        },
        {
          "internalType": "string",
          "name": "_RainRate",
          "type": "string"
        },
        {
          "internalType": "string",
          "name": "_SunRise",
          "type": "string"
        },
        {
          "internalType": "string",
          "name": "_SunSet",
          "type": "string"
        },
        {
          "internalType": "string",
          "name": "_Barometer",
          "type": "string"
        },
        {
          "internalType": "string",
          "name": "_EtDay",
          "type": "string"
        }
      ],
      "name": "add_Data2",
      "outputs": [],
      "stateMutability": "nonpayable",
      "type": "function"
    },
    {
      "inputs": [],
      "name": "Call_Data",
      "outputs": [
        {
          "components": [
            {
              "internalType": "string",
              "name": "Timestamp",
              "type": "string"
            },
            {
              "internalType": "string",
              "name": "time",
              "type": "string"
            },
            {
              "internalType": "string",
              "name": "TempIn",
              "type": "string"
            },
            {
              "internalType": "string",
              "name": "TempOut",
              "type": "string"
            },
            {
              "internalType": "string",
              "name": "HumIn",
              "type": "string"
            },
            {
              "internalType": "string",
              "name": "HumOut",
              "type": "string"
            },
            {
              "internalType": "string",
              "name": "BarTrend",
              "type": "string"
            },
            {
              "internalType": "string",
              "name": "WindSpeed",
              "type": "string"
            },
            {
              "internalType": "string",
              "name": "WindDir",
              "type": "string"
            },
            {
              "internalType": "string",
              "name": "RainDay",
              "type": "string"
            }
          ],
          "internalType": "struct Meteo_Station.data1[]",
          "name": "",
          "type": "tuple[]"
        },
        {
          "components": [
            {
              "internalType": "string",
              "name": "SolarRad",
              "type": "string"
            },
            {
              "internalType": "string",
              "name": "UV",
              "type": "string"
            },
            {
              "internalType": "string",
              "name": "RainRate",
              "type": "string"
            },
            {
              "internalType": "string",
              "name": "SunRise",
              "type": "string"
            },
            {
              "internalType": "string",
              "name": "SunSet",
              "type": "string"
            },
            {
              "internalType": "string",
              "name": "Barometer",
              "type": "string"
            },
            {
              "internalType": "string",
              "name": "EtDay",
              "type": "string"
            }
          ],
          "internalType": "struct Meteo_Station.data2[]",
          "name": "",
          "type": "tuple[]"
        }
      ],
      "stateMutability": "view",
      "type": "function",
      "constant": true
    }
  ],
  "bytecode": "0x608060405234801561001057600080fd5b5061246c806100206000396000f3fe608060405234801561001057600080fd5b50600436106100575760003560e01c806301cd6e3a1461005c5780632fadaed61461007b5780637cd9a619146100975780638600fac2146100d0578063d1b30703146100ec575b600080fd5b610064610122565b604051610072929190611cca565b60405180910390f35b61009560048036038101906100909190611e4a565b610b96565b005b6100b160048036038101906100ac9190611fe6565b610cca565b6040516100c79a9998979695949392919061205d565b60405180910390f35b6100ea60048036038101906100e5919061213f565b61127e565b005b61010660048036038101906101019190611fe6565b611421565b6040516101199796959493929190612336565b60405180910390f35b6060806000600181805480602002602001604051908101604052809291908181526020016000905b8282101561073157838290600052602060002090600a02016040518061014001604052908160008201805461017e90612405565b80601f01602080910402602001604051908101604052809291908181526020018280546101aa90612405565b80156101f75780601f106101cc576101008083540402835291602001916101f7565b820191906000526020600020905b8154815290600101906020018083116101da57829003601f168201915b5050505050815260200160018201805461021090612405565b80601f016020809104026020016040519081016040528092919081815260200182805461023c90612405565b80156102895780601f1061025e57610100808354040283529160200191610289565b820191906000526020600020905b81548152906001019060200180831161026c57829003601f168201915b505050505081526020016002820180546102a290612405565b80601f01602080910402602001604051908101604052809291908181526020018280546102ce90612405565b801561031b5780601f106102f05761010080835404028352916020019161031b565b820191906000526020600020905b8154815290600101906020018083116102fe57829003601f168201915b5050505050815260200160038201805461033490612405565b80601f016020809104026020016040519081016040528092919081815260200182805461036090612405565b80156103ad5780601f10610382576101008083540402835291602001916103ad565b820191906000526020600020905b81548152906001019060200180831161039057829003601f168201915b505050505081526020016004820180546103c690612405565b80601f01602080910402602001604051908101604052809291908181526020018280546103f290612405565b801561043f5780601f106104145761010080835404028352916020019161043f565b820191906000526020600020905b81548152906001019060200180831161042257829003601f168201915b5050505050815260200160058201805461045890612405565b80601f016020809104026020016040519081016040528092919081815260200182805461048490612405565b80156104d15780601f106104a6576101008083540402835291602001916104d1565b820191906000526020600020905b8154815290600101906020018083116104b457829003601f168201915b505050505081526020016006820180546104ea90612405565b80601f016020809104026020016040519081016040528092919081815260200182805461051690612405565b80156105635780601f1061053857610100808354040283529160200191610563565b820191906000526020600020905b81548152906001019060200180831161054657829003601f168201915b5050505050815260200160078201805461057c90612405565b80601f01602080910402602001604051908101604052809291908181526020018280546105a890612405565b80156105f55780601f106105ca576101008083540402835291602001916105f5565b820191906000526020600020905b8154815290600101906020018083116105d857829003601f168201915b5050505050815260200160088201805461060e90612405565b80601f016020809104026020016040519081016040528092919081815260200182805461063a90612405565b80156106875780601f1061065c57610100808354040283529160200191610687565b820191906000526020600020905b81548152906001019060200180831161066a57829003601f168201915b505050505081526020016009820180546106a090612405565b80601f01602080910402602001604051908101604052809291908181526020018280546106cc90612405565b80156107195780601f106106ee57610100808354040283529160200191610719565b820191906000526020600020905b8154815290600101906020018083116106fc57829003601f168201915b5050505050815250508152602001906001019061014a565b50505050915080805480602002602001604051908101604052809291908181526020016000905b82821015610b8857838290600052602060002090600702016040518060e001604052908160008201805461078b90612405565b80601f01602080910402602001604051908101604052809291908181526020018280546107b790612405565b80156108045780601f106107d957610100808354040283529160200191610804565b820191906000526020600020905b8154815290600101906020018083116107e757829003601f168201915b5050505050815260200160018201805461081d90612405565b80601f016020809104026020016040519081016040528092919081815260200182805461084990612405565b80156108965780601f1061086b57610100808354040283529160200191610896565b820191906000526020600020905b81548152906001019060200180831161087957829003601f168201915b505050505081526020016002820180546108af90612405565b80601f01602080910402602001604051908101604052809291908181526020018280546108db90612405565b80156109285780601f106108fd57610100808354040283529160200191610928565b820191906000526020600020905b81548152906001019060200180831161090b57829003601f168201915b5050505050815260200160038201805461094190612405565b80601f016020809104026020016040519081016040528092919081815260200182805461096d90612405565b80156109ba5780601f1061098f576101008083540402835291602001916109ba565b820191906000526020600020905b81548152906001019060200180831161099d57829003601f168201915b505050505081526020016004820180546109d390612405565b80601f01602080910402602001604051908101604052809291908181526020018280546109ff90612405565b8015610a4c5780601f10610a2157610100808354040283529160200191610a4c565b820191906000526020600020905b815481529060010190602001808311610a2f57829003601f168201915b50505050508152602001600582018054610a6590612405565b80601f0160208091040260200160405190810160405280929190818152602001828054610a9190612405565b8015610ade5780601f10610ab357610100808354040283529160200191610ade565b820191906000526020600020905b815481529060010190602001808311610ac157829003601f168201915b50505050508152602001600682018054610af790612405565b80601f0160208091040260200160405190810160405280929190818152602001828054610b2390612405565b8015610b705780601f10610b4557610100808354040283529160200191610b70565b820191906000526020600020905b815481529060010190602001808311610b5357829003601f168201915b50505050508152505081526020019060010190610758565b505050509050915091509091565b60016040518060e001604052808981526020018881526020018781526020018681526020018581526020018481526020018381525090806001815401808255809150506001900390600052602060002090600702016000909190919091506000820151816000019080519060200190610c1092919061182b565b506020820151816001019080519060200190610c2d92919061182b565b506040820151816002019080519060200190610c4a92919061182b565b506060820151816003019080519060200190610c6792919061182b565b506080820151816004019080519060200190610c8492919061182b565b5060a0820151816005019080519060200190610ca192919061182b565b5060c0820151816006019080519060200190610cbe92919061182b565b50505050505050505050565b60008181548110610cda57600080fd5b90600052602060002090600a0201600091509050806000018054610cfd90612405565b80601f0160208091040260200160405190810160405280929190818152602001828054610d2990612405565b8015610d765780601f10610d4b57610100808354040283529160200191610d76565b820191906000526020600020905b815481529060010190602001808311610d5957829003601f168201915b505050505090806001018054610d8b90612405565b80601f0160208091040260200160405190810160405280929190818152602001828054610db790612405565b8015610e045780601f10610dd957610100808354040283529160200191610e04565b820191906000526020600020905b815481529060010190602001808311610de757829003601f168201915b505050505090806002018054610e1990612405565b80601f0160208091040260200160405190810160405280929190818152602001828054610e4590612405565b8015610e925780601f10610e6757610100808354040283529160200191610e92565b820191906000526020600020905b815481529060010190602001808311610e7557829003601f168201915b505050505090806003018054610ea790612405565b80601f0160208091040260200160405190810160405280929190818152602001828054610ed390612405565b8015610f205780601f10610ef557610100808354040283529160200191610f20565b820191906000526020600020905b815481529060010190602001808311610f0357829003601f168201915b505050505090806004018054610f3590612405565b80601f0160208091040260200160405190810160405280929190818152602001828054610f6190612405565b8015610fae5780601f10610f8357610100808354040283529160200191610fae565b820191906000526020600020905b815481529060010190602001808311610f9157829003601f168201915b505050505090806005018054610fc390612405565b80601f0160208091040260200160405190810160405280929190818152602001828054610fef90612405565b801561103c5780601f106110115761010080835404028352916020019161103c565b820191906000526020600020905b81548152906001019060200180831161101f57829003601f168201915b50505050509080600601805461105190612405565b80601f016020809104026020016040519081016040528092919081815260200182805461107d90612405565b80156110ca5780601f1061109f576101008083540402835291602001916110ca565b820191906000526020600020905b8154815290600101906020018083116110ad57829003601f168201915b5050505050908060070180546110df90612405565b80601f016020809104026020016040519081016040528092919081815260200182805461110b90612405565b80156111585780601f1061112d57610100808354040283529160200191611158565b820191906000526020600020905b81548152906001019060200180831161113b57829003601f168201915b50505050509080600801805461116d90612405565b80601f016020809104026020016040519081016040528092919081815260200182805461119990612405565b80156111e65780601f106111bb576101008083540402835291602001916111e6565b820191906000526020600020905b8154815290600101906020018083116111c957829003601f168201915b5050505050908060090180546111fb90612405565b80601f016020809104026020016040519081016040528092919081815260200182805461122790612405565b80156112745780601f1061124957610100808354040283529160200191611274565b820191906000526020600020905b81548152906001019060200180831161125757829003601f168201915b505050505090508a565b60006040518061014001604052808c81526020018b81526020018a81526020018981526020018881526020018781526020018681526020018581526020018481526020018381525090806001815401808255809150506001900390600052602060002090600a0201600090919091909150600082015181600001908051906020019061130b92919061182b565b50602082015181600101908051906020019061132892919061182b565b50604082015181600201908051906020019061134592919061182b565b50606082015181600301908051906020019061136292919061182b565b50608082015181600401908051906020019061137f92919061182b565b5060a082015181600501908051906020019061139c92919061182b565b5060c08201518160060190805190602001906113b992919061182b565b5060e08201518160070190805190602001906113d692919061182b565b506101008201518160080190805190602001906113f492919061182b565b5061012082015181600901908051906020019061141292919061182b565b50505050505050505050505050565b6001818154811061143157600080fd5b906000526020600020906007020160009150905080600001805461145490612405565b80601f016020809104026020016040519081016040528092919081815260200182805461148090612405565b80156114cd5780601f106114a2576101008083540402835291602001916114cd565b820191906000526020600020905b8154815290600101906020018083116114b057829003601f168201915b5050505050908060010180546114e290612405565b80601f016020809104026020016040519081016040528092919081815260200182805461150e90612405565b801561155b5780601f106115305761010080835404028352916020019161155b565b820191906000526020600020905b81548152906001019060200180831161153e57829003601f168201915b50505050509080600201805461157090612405565b80601f016020809104026020016040519081016040528092919081815260200182805461159c90612405565b80156115e95780601f106115be576101008083540402835291602001916115e9565b820191906000526020600020905b8154815290600101906020018083116115cc57829003601f168201915b5050505050908060030180546115fe90612405565b80601f016020809104026020016040519081016040528092919081815260200182805461162a90612405565b80156116775780601f1061164c57610100808354040283529160200191611677565b820191906000526020600020905b81548152906001019060200180831161165a57829003601f168201915b50505050509080600401805461168c90612405565b80601f01602080910402602001604051908101604052809291908181526020018280546116b890612405565b80156117055780601f106116da57610100808354040283529160200191611705565b820191906000526020600020905b8154815290600101906020018083116116e857829003601f168201915b50505050509080600501805461171a90612405565b80601f016020809104026020016040519081016040528092919081815260200182805461174690612405565b80156117935780601f1061176857610100808354040283529160200191611793565b820191906000526020600020905b81548152906001019060200180831161177657829003601f168201915b5050505050908060060180546117a890612405565b80601f01602080910402602001604051908101604052809291908181526020018280546117d490612405565b80156118215780601f106117f657610100808354040283529160200191611821565b820191906000526020600020905b81548152906001019060200180831161180457829003601f168201915b5050505050905087565b82805461183790612405565b90600052602060002090601f01602090048101928261185957600085556118a0565b82601f1061187257805160ff19168380011785556118a0565b828001600101855582156118a0579182015b8281111561189f578251825591602001919060010190611884565b5b5090506118ad91906118b1565b5090565b5b808211156118ca5760008160009055506001016118b2565b5090565b600081519050919050565b600082825260208201905092915050565b6000819050602082019050919050565b600081519050919050565b600082825260208201905092915050565b60005b83811015611934578082015181840152602081019050611919565b83811115611943576000848401525b50505050565b6000601f19601f8301169050919050565b6000611965826118fa565b61196f8185611905565b935061197f818560208601611916565b61198881611949565b840191505092915050565b60006101408301600083015184820360008601526119b1828261195a565b915050602083015184820360208601526119cb828261195a565b915050604083015184820360408601526119e5828261195a565b915050606083015184820360608601526119ff828261195a565b91505060808301518482036080860152611a19828261195a565b91505060a083015184820360a0860152611a33828261195a565b91505060c083015184820360c0860152611a4d828261195a565b91505060e083015184820360e0860152611a67828261195a565b915050610100830151848203610100860152611a83828261195a565b915050610120830151848203610120860152611a9f828261195a565b9150508091505092915050565b6000611ab88383611993565b905092915050565b6000602082019050919050565b6000611ad8826118ce565b611ae281856118d9565b935083602082028501611af4856118ea565b8060005b85811015611b305784840389528151611b118582611aac565b9450611b1c83611ac0565b925060208a01995050600181019050611af8565b50829750879550505050505092915050565b600081519050919050565b600082825260208201905092915050565b6000819050602082019050919050565b600060e0830160008301518482036000860152611b8b828261195a565b91505060208301518482036020860152611ba5828261195a565b91505060408301518482036040860152611bbf828261195a565b91505060608301518482036060860152611bd9828261195a565b91505060808301518482036080860152611bf3828261195a565b91505060a083015184820360a0860152611c0d828261195a565b91505060c083015184820360c0860152611c27828261195a565b9150508091505092915050565b6000611c408383611b6e565b905092915050565b6000602082019050919050565b6000611c6082611b42565b611c6a8185611b4d565b935083602082028501611c7c85611b5e565b8060005b85811015611cb85784840389528151611c998582611c34565b9450611ca483611c48565b925060208a01995050600181019050611c80565b50829750879550505050505092915050565b60006040820190508181036000830152611ce48185611acd565b90508181036020830152611cf88184611c55565b90509392505050565b6000604051905090565b600080fd5b600080fd5b600080fd5b600080fd5b7f4e487b7100000000000000000000000000000000000000000000000000000000600052604160045260246000fd5b611d5782611949565b810181811067ffffffffffffffff82111715611d7657611d75611d1f565b5b80604052505050565b6000611d89611d01565b9050611d958282611d4e565b919050565b600067ffffffffffffffff821115611db557611db4611d1f565b5b611dbe82611949565b9050602081019050919050565b82818337600083830152505050565b6000611ded611de884611d9a565b611d7f565b905082815260208101848484011115611e0957611e08611d1a565b5b611e14848285611dcb565b509392505050565b600082601f830112611e3157611e30611d15565b5b8135611e41848260208601611dda565b91505092915050565b600080600080600080600060e0888a031215611e6957611e68611d0b565b5b600088013567ffffffffffffffff811115611e8757611e86611d10565b5b611e938a828b01611e1c565b975050602088013567ffffffffffffffff811115611eb457611eb3611d10565b5b611ec08a828b01611e1c565b965050604088013567ffffffffffffffff811115611ee157611ee0611d10565b5b611eed8a828b01611e1c565b955050606088013567ffffffffffffffff811115611f0e57611f0d611d10565b5b611f1a8a828b01611e1c565b945050608088013567ffffffffffffffff811115611f3b57611f3a611d10565b5b611f478a828b01611e1c565b93505060a088013567ffffffffffffffff811115611f6857611f67611d10565b5b611f748a828b01611e1c565b92505060c088013567ffffffffffffffff811115611f9557611f94611d10565b5b611fa18a828b01611e1c565b91505092959891949750929550565b6000819050919050565b611fc381611fb0565b8114611fce57600080fd5b50565b600081359050611fe081611fba565b92915050565b600060208284031215611ffc57611ffb611d0b565b5b600061200a84828501611fd1565b91505092915050565b600082825260208201905092915050565b600061202f826118fa565b6120398185612013565b9350612049818560208601611916565b61205281611949565b840191505092915050565b6000610140820190508181036000830152612078818d612024565b9050818103602083015261208c818c612024565b905081810360408301526120a0818b612024565b905081810360608301526120b4818a612024565b905081810360808301526120c88189612024565b905081810360a08301526120dc8188612024565b905081810360c08301526120f08187612024565b905081810360e08301526121048186612024565b90508181036101008301526121198185612024565b905081810361012083015261212e8184612024565b90509b9a5050505050505050505050565b6000806000806000806000806000806101408b8d03121561216357612162611d0b565b5b60008b013567ffffffffffffffff81111561218157612180611d10565b5b61218d8d828e01611e1c565b9a505060208b013567ffffffffffffffff8111156121ae576121ad611d10565b5b6121ba8d828e01611e1c565b99505060408b013567ffffffffffffffff8111156121db576121da611d10565b5b6121e78d828e01611e1c565b98505060608b013567ffffffffffffffff81111561220857612207611d10565b5b6122148d828e01611e1c565b97505060808b013567ffffffffffffffff81111561223557612234611d10565b5b6122418d828e01611e1c565b96505060a08b013567ffffffffffffffff81111561226257612261611d10565b5b61226e8d828e01611e1c565b95505060c08b013567ffffffffffffffff81111561228f5761228e611d10565b5b61229b8d828e01611e1c565b94505060e08b013567ffffffffffffffff8111156122bc576122bb611d10565b5b6122c88d828e01611e1c565b9350506101008b013567ffffffffffffffff8111156122ea576122e9611d10565b5b6122f68d828e01611e1c565b9250506101208b013567ffffffffffffffff81111561231857612317611d10565b5b6123248d828e01611e1c565b9150509295989b9194979a5092959850565b600060e0820190508181036000830152612350818a612024565b905081810360208301526123648189612024565b905081810360408301526123788188612024565b9050818103606083015261238c8187612024565b905081810360808301526123a08186612024565b905081810360a08301526123b48185612024565b905081810360c08301526123c88184612024565b905098975050505050505050565b7f4e487b7100000000000000000000000000000000000000000000000000000000600052602260045260246000fd5b6000600282049050600182168061241d57607f821691505b6020821081036124305761242f6123d6565b5b5091905056fea26469706673582212209d2ea2c8eb1b1f553d6f2f20b2d30572d3d0acae608061844d4e46ef8fdec5a264736f6c634300080d0033",
  "immutableReferences": {},
  "source": "// SPDX-License-Identifier: MIT\npragma solidity ^0.8.13;\n \ncontract Meteo_Station{\n\n\tstruct data1 {\n\t\tstring Timestamp;\n\t\tstring time;\n\t\tstring TempIn;\n\t\tstring TempOut;\n\t\tstring HumIn;\n\t\tstring HumOut;\n\t\tstring BarTrend;\n\t\tstring WindSpeed;\n\t\tstring WindDir;\n\t\tstring RainDay;\n\t}\n\n\tstruct data2 {\n\t\tstring SolarRad;\n\t\tstring UV;\n\t\tstring RainRate;\n\t\tstring SunRise;\n\t\tstring SunSet;\n\t\tstring Barometer;\n\t\tstring EtDay;\n\t}\n\n  \tdata1[] public weather_station_data1;\n\tdata2[] public weather_station_data2;\n\t\t\n\tfunction add_Data1(string memory _Timestamp, string memory _time, string memory _TempIn, string memory _TempOut, string memory _HumIn, string memory _HumOut, string memory _BarTrend, string memory _WindSpeed, string memory _WindDir, string memory _RainDay) public {\n\t\tweather_station_data1.push(data1({Timestamp: _Timestamp, time: _time, TempIn: _TempIn, TempOut: _TempOut, HumIn: _HumIn, HumOut: _HumOut, BarTrend: _BarTrend, WindSpeed: _WindSpeed, WindDir: _WindDir, RainDay: _RainDay}));  \n\t}\n\n\tfunction add_Data2(string memory _SolarRad, string memory _UV, string memory _RainRate, string memory _SunRise, string memory _SunSet, string memory _Barometer, string memory _EtDay) public {\n\t\tweather_station_data2.push(data2({SolarRad: _SolarRad, UV: _UV, RainRate: _RainRate, SunRise: _SunRise, SunSet: _SunSet, Barometer: _Barometer, EtDay: _EtDay})); \n\t}\n\t\n\tfunction Call_Data() public view returns (data1[] memory, data2[] memory) {\n\t\treturn (weather_station_data1, weather_station_data2);\n\t} \n\n}",
  "sourcePath": "/home/amraouy/Desktop/truffle/contracts/Meteo_Station.sol",
  "compiler": {
    "name": "solc",
    "version": "0.8.13+commit.abaa5c0e.Emscripten.clang"
  },
  "schemaVersion": "3.4.16",
  "updatedAt": "2024-04-24T19:12:57.787Z",
  "networkType": "ethereum",
  "devdoc": {
    "kind": "dev",
    "methods": {},
    "version": 1
  },
  "userdoc": {
    "kind": "user",
    "methods": {},
    "version": 1
  }
}